:1000000012C017C016C015C014C013C012C011C052
:1000100010C00FC00EC00DC00CC00BC00AC009C07C
:1000200008C007C006C011241FBECFEDCDBF10D041
:1000300042C0E6CF82B38A7F82BB81B3856081BB39
:10004000089581B38A7F81BB82B38A7F82BB089582
:10005000F8DF8E98969AEEDF2FE38DE093E0215043
:1000600080409040E1F700C00000EBDF8699FECFB2
:1000700089E698E10197F1F700C000008699F6CF74
:10008000D9DF9FE32DE083E0915020408040E1F7ED
:1000900000C00000D6DF869B07C089E698E1019783
:1000A000F1F700C00000E2CF83EC99E00197F1F78F
:0A00B00000C00000F0CFF894FFCF6D
:00000001FF
